:100000000C945D000C9485000C9485000C94850084
:100010000C9485000C9485000C9485000C9485004C
:100020000C9485000C9485000C9485000C9485003C
:100030000C9485000C9485000C9485000C9485002C
:100040000C9423020C9485000C943E040C948104BF
:100050000C9485000C9485000C9485000C9485000C
:100060000C9485000C94850000000007000201003C
:100070000003040600000000000000000102040864
:100080001020408001020408102001020408102002
:10009000040404040404040402020202020203032E
:1000A0000303030300000000250028002B000000CC
:1000B0000000240027002A003D0511241FBECFEFB9
:1000C000D8E0DEBFCDBF11E0A0E0B1E0E2E3F4E1B3
:1000D00002C005900D92A636B107D9F712E0A6E648
:1000E000B1E001C01D92AD32B107E1F710E0CAEBFB
:1000F000D0E004C02297FE010E94130AC83BD1073A
:10010000C9F70E94C0070C94CD070C94000020E0B2
:1001100030E00C96FC0146E050E02417350774F4FB
:1001200060817181B291A2916A177B0724F4B38335
:10013000A2837183608341505109EFCF2F5F3F4FFE
:100140002730310539F708950F931F93CF93DF932D
:1001500040E855E260E070E083E891E00E94BC0472
:1001600061E080910E010E943703109267011092A6
:10017000660180916601909167010797FCF464E63F
:1001800070E080E090E00E949002C0916601D09102
:100190006701809178010E94F102FE01EE0FFF1FBE
:1001A000E659FE4F918380838091660190916701AB
:1001B00001969093670180936601DBCF8AE691E018
:1001C0000E948700009170011091710110926701E7
:1001D0001092660180916601909167010797FCF487
:1001E00064E670E080E090E00E949002C0916601B9
:1001F000D0916701809178010E94F102FE01EE0F1B
:10020000FF1FE659FE4F9183808380916601909194
:10021000670101969093670180936601DBCF8AE6C0
:1002200091E00E948700C0917001D0917101C00FD0
:10023000D11FD7FD2196D595C79561E171E083E87F
:1002400091E00E94D1054AE050E0BE0183E891E0D0
:100250000E94AB0669E171E083E891E00E94D1055C
:1002600040910A0150910B0160910C0170910D01B8
:1002700022E030E083E891E00E94AE072091060181
:1002800030910701409108015091090160910A01E4
:1002900070910B0180910C0190910D010E94390821
:1002A00020E030E040EF51E40E9488090E94A1085C
:1002B000C61BD70BD0936901C093680169E271E056
:1002C00083E891E00E94D105609168017091690115
:1002D0004AE050E083E891E00E94AB0668EE73E0EC
:1002E00080E090E00E94900268EE73E080E090E091
:1002F000DF91CF911F910F910C949002CF93DF93D8
:1003000068EC70E080E090E00E949002109267013B
:1003100010926601C0916601D0916701C730D10586
:10032000ACF4809178010E94F102FE01EE0FFF1FF4
:10033000E659FE4F91838083809166019091670119
:1003400001969093670180936601E4CF8AE691E07D
:100350000E94870060917001709171014AE050E045
:1003600083E891E00E94AB06209170013091710109
:100370008091680190916901281739070CF05CC0E1
:1003800061E080910E010E94700360ED77E080E0F3
:1003900090E00E9490021092670110926601C09155
:1003A0006601D0916701C730D105ACF48091780126
:1003B0000E94F102FE01EE0FFF1FE659FE4F9183EE
:1003C0008083809166019091670101969093670107
:1003D00080936601E4CF8AE691E00E9487006091F5
:1003E0007001709171014AE050E083E891E00E9451
:1003F000A30666E371E083E891E00E94EE05209198
:100400007001309171018091680190916901281704
:1004100039076CF460E080910E010E94700364EF74
:1004200071E080E090E0DF91CF910C94900264EF56
:1004300071E080E090E0ADCF60E080910E01DF914F
:10044000CF910C9470031F920F920FB60F9211244C
:100450002F933F938F939F93AF93BF9380917B0193
:1004600090917C01A0917D01B0917E0130917A0143
:1004700023E0230F2D3720F40196A11DB11D05C0E7
:1004800026E8230F0296A11DB11D20937A018093C7
:100490007B0190937C01A0937D01B0937E018091BC
:1004A0007F0190918001A0918101B091820101961C
:1004B000A11DB11D80937F0190938001A0938101C4
:1004C000B0938201BF91AF919F918F913F912F91F6
:1004D0000F900FBE0F901F9018953FB7F894809122
:1004E0007F0190918001A0918101B091820126B598
:1004F000A89B05C02F3F19F00196A11DB11D3FBF5C
:100500006627782F892F9A2F620F711D811D911DEB
:1005100042E0660F771F881F991F4A95D1F708950B
:10052000CF92DF92EF92FF92CF93DF936B017C012A
:100530000E946D02EB01C114D104E104F10479F0D1
:100540000E946D026C1B7D0B683E7340A0F381E03E
:10055000C81AD108E108F108C851DC4FECCFDF918F
:10056000CF91FF90EF90DF90CF900895789484B56D
:10057000826084BD84B5816084BD85B5826085BD9F
:1005800085B5816085BDEEE6F0E080818160808385
:10059000E1E8F0E010828081826080838081816068
:1005A0008083E0E8F0E0808181608083E1EBF0E02F
:1005B000808184608083E0EBF0E0808181608083D3
:1005C000EAE7F0E0808184608083808182608083BC
:1005D0008081816080838081806880831092C100E7
:1005E00008958E3008F08E5087702091100190E4AD
:1005F000299F90011124822B80937C0080917A00A6
:10060000806480937A0080917A0086FDFCCF80918F
:1006100078002091790090E0922B0895833081F04A
:1006200028F4813099F08230A1F008958630A9F045
:100630008730B9F08430D1F4809180008F7D03C081
:10064000809180008F7780938000089584B58F77A4
:1006500002C084B58F7D84BD08958091B0008F77EE
:1006600003C08091B0008F7D8093B0000895CF9338
:10067000DF9390E0FC01E458FF4F2491FC01E05728
:10068000FF4F8491882349F190E0880F991FFC0166
:10069000E255FF4FA591B4918C559F4FFC01C59138
:1006A000D4919FB7611108C0F8948C912095822352
:1006B0008C93888182230AC0623051F4F8948C9123
:1006C000322F309583238C938881822B888304C0BA
:1006D000F8948C91822B8C939FBFDF91CF910895DA
:1006E0000F931F93CF93DF931F92CDB7DEB7282FC1
:1006F00030E0F901E859FF4F8491F901E458FF4FC8
:100700001491F901E057FF4F04910023C9F08823A9
:1007100021F069830E940E036981E02FF0E0EE0F63
:10072000FF1FEC55FF4FA591B4919FB7F8948C91A2
:10073000611103C01095812301C0812B8C939FBF51
:100740000F90DF91CF911F910F910895FC012485A7
:100750003585F901E05CFF4F80819181F901EE5B05
:10076000FF4F20813181821B930B8F73992708954E
:10077000FC0184859585FC01E05CFF4F408151813F
:10078000FC01EE5BFF4F208131814217530741F09E
:100790000190F081E02DE80FF91F808190E008952D
:1007A0008FEF9FEF0895FC0184859585FC01E05C47
:1007B000FF4F40815181FC01EE5BFF4F2081318171
:1007C0004217530779F0A081B181A80FB91F8C910E
:1007D000208131812F5F3F4F2F7333273183208357
:1007E00090E008958FEF9FEF0895FC0181A1882389
:1007F00029F0A489B5898C9186FFFBCF11A20895B9
:10080000CF93DF93FC0126853785D901A05CBF4FCC
:100810008D919C91119701968F739927E901CE5B79
:10082000DF4F4881598184179507D9F30D90BC910A
:10083000A02DA20FB31F6C93A685B785A05CBF4FF8
:1008400011969C938E93A689B7892C9181E090E0B4
:10085000078C02C0880F991F0A94E2F7282B2C936B
:1008600081E081A30488F589E02D80818064808304
:1008700081E090E0DF91CF91089508951F920F924B
:100880000FB60F9211242F933F934F938F939F9303
:10089000EF93FF938091C00082FD1CC04091C60081
:1008A0008091290290912A0201968F7399272091B5
:1008B0002B0230912C028217930771F0E0912902EC
:1008C000F0912A02E751FE4F408390932A028093D1
:1008D000290202C08091C600FF91EF919F918F91F4
:1008E0004F913F912F910F900FBE0F901F90189531
:1008F00083E891E00E94A603892B11F00C943D043B
:1009000008951F920F920FB60F9211242F933F93C9
:100910008F939F93EF93FF932091E5013091E60130
:100920008091E7019091E8012817390731F480910F
:10093000C1008F7D8093C10014C0E091E701F09168
:10094000E801EB55FE4F20818091E7019091E8018D
:1009500001968F7399279093E8018093E701209384
:10096000C600FF91EF919F918F913F912F910F9032
:100970000FBE0F901F901895CF92DF92EF92FF92CB
:10098000CF93DF93EC016A017B01411581EE58079B
:1009900061057105F9F0EC89FD8981E090E008A01E
:1009A00002C0880F991F0A94E2F7808360E079E023
:1009B0008DE390E0A70196010E94EF0921503109D3
:1009C000410951095695479537952795211580E19D
:1009D000380798F0EC89FD89108260E874E88EE1B0
:1009E00090E0A70196010E94EF09215031094109C9
:1009F00051095695479537952795E889F9893083A8
:100A0000EA89FB89208319A2EE89FF89408181E070
:100A100090E09C010C8C02C0220F331F0A94E2F775
:100A2000422B4083EE89FF8940819C010D8C02C0DE
:100A3000220F331F0A94E2F7422B4083EE89FF898D
:100A400040819C010E8C02C0220F331F0A94E2F7F2
:100A5000422B4083EE89FF8920810F8C02C0880FD2
:100A6000991F0A94E2F7809582238083DF91CF91CA
:100A7000FF90EF90DF90CF90089510928601109232
:100A8000850188EE93E0A0E0B0E080938701909329
:100A90008801A0938901B0938A018DE491E090933D
:100AA00084018093830189EE91E09093900180937B
:100AB0008F0185EA91E0909392018093910185ECFA
:100AC00090E0909394018093930184EC90E0909354
:100AD00096018093950180EC90E09093980180932B
:100AE000970181EC90E090939A018093990182ECB8
:100AF00090E090939C0180939B0186EC90E0909312
:100B00009E0180939D0184E080939F0183E0809308
:100B1000A00187E08093A10185E08093A20181E09C
:100B20008093A3010895CF92DF92EF92FF920F93EB
:100B30001F93CF93DF936C017A01EB01E60EF71E52
:100B400000E010E0CE15DF0561F06991D601ED916E
:100B5000FC910190F081E02DC6010995080F191F45
:100B6000F1CFC801DF91CF911F910F91FF90EF90CE
:100B7000DF90CF9008956115710581F0DB010D9034
:100B80000020E9F7AD0141505109461B570BDC012C
:100B9000ED91FC910280F381E02D099480E090E0DA
:100BA00008950C94BB05DC01ED91FC910190F0815E
:100BB000E02D09940F931F93CF93DF93EC016DE029
:100BC0000E94D3058C016AE0CE010E94D305800FFC
:100BD000911FDF91CF911F910F9108950F931F9354
:100BE000CF93DF93EC010E94BB058C01CE010E94E4
:100BF000DA05800F911FDF91CF911F910F9108951A
:100C00008F929F92AF92BF92CF92DF92EF92FF921C
:100C10000F931F93CF93DF93CDB7DEB7A1970FB696
:100C2000F894DEBF0FBECDBF7C01C42EE52FCB01F3
:100C3000D22E19A221E02D1510F02AE0D22E8E011D
:100C40000F5D1F4F8D2C912CA12CB12C6C2D7E2F64
:100C5000A50194010E94EF098C2DD29E80191124C8
:100C6000015011098A3014F4805D01C0895CF801DB
:100C70008083211531054105510521F0C22EE32F56
:100C8000CA01E4CFB801C7010E94BB05A1960FB607
:100C9000F894DEBF0FBECDBFDF91CF911F910F91B2
:100CA000FF90EF90DF90CF90BF90AF909F908F908C
:100CB0000895CF92DF92EF92FF920F931F93CF93FD
:100CC000DF93EC016A017B012115310579F4E8819C
:100CD000F9810190F081E02D642FDF91CF911F9178
:100CE0000F91FF90EF90DF90CF9009942A3031055B
:100CF000E9F477FF1AC06DE20E94D3058C01442706
:100D00005527BA014C195D096E097F092AE0CE0109
:100D10000E940006800F911FDF91CF911F910F91CC
:100D2000FF90EF90DF90CF9008952AE0B701A601E1
:100D3000CE01DF91CF911F910F91FF90EF90DF9047
:100D4000CF900C9400069A01AB01662757FD609581
:100D5000762F0C9459060F931F93CF93DF93EC01DA
:100D60009A01AB01662757FD6095762F0E945906C0
:100D70008C01CE010E94DA05800F911FDF91CF9187
:100D80001F910F9108954F925F926F927F928F9271
:100D90009F92AF92BF92CF92DF92EF92FF920F930A
:100DA0001F93CF93DF93EC016A017B01B22E9A016E
:100DB000AB01C701B6010E94EB09882319F069E570
:100DC00071E027C026013701E89477F82FEF3FEF55
:100DD0004FE75FE7C301B2010E94EB0981110DC02B
:100DE0002FEF3FEF4FE75FE7C301B2010E943508E5
:100DF00018161CF46DE571E00CC02FEF3FEF4FE7C4
:100E00005FE4C701B6010E9484091816ACF461E6DC
:100E100071E0CE01DF91CF911F910F91FF90EF9084
:100E2000DF90CF90BF90AF909F908F907F906F900A
:100E30005F904F900C94BB052FEF3FEF4FE75FECB7
:100E4000C701B6010E94350887FDE1CF20E030E000
:100E5000A901C701B6010E94350887FF0AC06DE2EB
:100E6000CE010E94D3058C01F7FAF094F7F8F094C4
:100E700002C000E010E0A12C60E070E080E09FE3A1
:100E8000AB1441F020E030E040E251E40E94390828
:100E9000A394F6CF9B01AC01C701B6010E94D10714
:100EA0006B017C010E94A6082B013C010E94D20824
:100EB0009B01AC01C701B6010E94D0076B017C0108
:100EC0002AE0B301A201CE010E940006080F191FFB
:100ED000BB2039F067E471E0CE010E94BB05080F2A
:100EE000191F7B2C772041F120E030E040E251E4F3
:100EF000C701B6010E9488096B017C010E94A1080C
:100F00004B01AA2497FCA094BA2C2AE030E0B5014A
:100F1000A401CE010E945906080F191FC501B40192
:100F20000E94D4089B01AC01C701B6010E94D00702
:100F30006B017C017A94D6CFC801DF91CF911F91CC
:100F40000F91FF90EF90DF90CF90BF90AF909F9068
:100F50008F907F906F905F904F9008950F931F93A5
:100F6000CF93DF93EC010E94C3068C01CE010E9457
:100F7000DA05800F911FDF91CF911F910F91089596
:100F80000E94B6020E94A400C8E7D4E00E947E013D
:100F90002097E1F30E947804F9CFF8940C94170A93
:100FA0005058BB27AA270ED075C166D130F06BD13F
:100FB00020F031F49F3F11F41EF45BC10EF4E09574
:100FC000E7FB51C1E92F77D180F3BA1762077307A6
:100FD0008407950718F071F49EF58FC10EF4E09523
:100FE0000B2EBA2FA02D0B01B90190010C01CA01E3
:100FF000A0011124FF27591B99F0593F50F4503E8E
:1010000068F11A16F040A22F232F342F4427585F7F
:10101000F3CF469537952795A795F0405395C9F797
:101020007EF41F16BA0B620B730B840BBAF091504F
:10103000A1F0FF0FBB1F661F771F881FC2F70EC0EE
:10104000BA0F621F731F841F48F4879577956795C1
:10105000B795F7959E3F08F0B3CF9395880F08F0AA
:101060009927EE0F979587950895D9D008F481E0D8
:1010700008950CD00FC107D140F0FED030F021F41C
:101080005F3F19F0F0C0511139C1F3C014D198F38A
:101090009923C9F35523B1F3951B550BBB27AA27F9
:1010A00062177307840738F09F5F5F4F220F331F6B
:1010B000441FAA1FA9F333D00E2E3AF0E0E830D037
:1010C00091505040E695001CCAF729D0FE2F27D03A
:1010D000660F771F881FBB1F261737074807AB0708
:1010E000B0E809F0BB0B802DBF01FF2793585F4F7D
:1010F0002AF09E3F510568F0B6C000C15F3FECF397
:10110000983EDCF3869577956795B795F7959F5F41
:10111000C9F7880F911D9695879597F90895E1E095
:10112000660F771F881FBB1F621773078407BA07F4
:1011300020F0621B730B840BBA0BEE1F88F7E0954F
:10114000089504D06894B111D9C00895BCD088F036
:101150009F5790F0B92F9927B751A0F0D1F0660FA3
:10116000771F881F991F1AF0BA95C9F712C0B130BE
:1011700081F0C3D0B1E00895C0C0672F782F8827D1
:10118000B85F39F0B93FCCF3869577956795B395FD
:10119000D9F73EF490958095709561957F4F8F4F6C
:1011A0009F4F0895E89409C097FB3EF49095809571
:1011B000709561957F4F8F4F9F4F9923A9F0F92F1D
:1011C00096E9BB279395F695879577956795B7959B
:1011D000F111F8CFFAF4BB0F11F460FF1BC06F5F81
:1011E0007F4F8F4F9F4F16C0882311F096E911C093
:1011F000772321F09EE8872F762F05C0662371F0B4
:1012000096E8862F70E060E02AF09A95660F771FC7
:10121000881FDAF7880F9695879597F90895990FA3
:101220000008550FAA0BE0E8FEEF16161706E807B0
:10123000F907C0F012161306E407F50798F0621BD1
:10124000730B840B950B39F40A2661F0232B242BA6
:10125000252B21F408950A2609F4A140A6958FEFC5
:10126000811D811D089597F99F6780E870E060E017
:1012700008959FEF80EC089500240A94161617062F
:1012800018060906089500240A9412161306140677
:1012900005060895092E0394000C11F4882352F0DA
:1012A000BB0F40F4BF2B11F460FF04C06F5F7F4F92
:1012B0008F4F9F4F089557FD9058440F551F59F079
:1012C0005F3F71F04795880F97FB991F61F09F3F33
:1012D00079F087950895121613061406551FF2CF5C
:1012E0004695F1DF08C0161617061806991FF1CFAC
:1012F00086957105610508940895E894BB276627D3
:101300007727CB0197F908958ADF08F48FEF0895C6
:101310000BD0C0CFB1DF28F0B6DF18F0952309F06D
:10132000A2CFA7CF1124EACFC6DFA0F3959FD1F3B8
:10133000950F50E0551F629FF001729FBB27F00D83
:10134000B11D639FAA27F00DB11DAA1F649F6627D8
:10135000B00DA11D661F829F2227B00DA11D621F27
:10136000739FB00DA11D621F839FA00D611D221FE1
:10137000749F3327A00D611D231F849F600D211DC5
:10138000822F762F6A2F11249F5750408AF0E1F068
:1013900088234AF0EE0FFF1FBB1F661F771F881FB1
:1013A00091505040A9F79E3F510570F05CCFA6CFF9
:1013B0005F3FECF3983EDCF3869577956795B7959C
:1013C000F795E7959F5FC1F7FE2B880F911D9695C6
:1013D000879597F9089523DF880B990B0895A1E26B
:1013E0001A2EAA1BBB1BFD010DC0AA1FBB1FEE1F9F
:1013F000FF1FA217B307E407F50720F0A21BB30BEA
:10140000E40BF50B661F771F881F991F1A9469F765
:1014100060957095809590959B01AC01BD01CF01C1
:101420000895EE0FFF1F0590F491E02D0994F894B4
:02143000FFCFEC
:1014320000002D022000CDCC1C410000F0410D0027
:101442000162696173203D200074617267657420D6
:10145200706F776572203D20007468726573686FE3
:101462006C64203D20002020206E6F7720696E681A
:10147200616C696E672E2E2E00000000000004933E
:1014820005A603D303B803F5036E616E00696E66A9
:06149200006F7666000009
:00000001FF
